{
  "_format": "hh-sol-artifact-1",
  "contractName": "WavePortal",
  "sourceName": "contracts/WavePortal.sol",
  "abi": [
    {
      "inputs": [],
      "stateMutability": "payable",
      "type": "constructor"
    },
    {
      "anonymous": false,
      "inputs": [
        {
          "indexed": true,
          "internalType": "address",
          "name": "from",
          "type": "address"
        },
        {
          "indexed": false,
          "internalType": "string[]",
          "name": "messages",
          "type": "string[]"
        },
        {
          "indexed": false,
          "internalType": "uint256",
          "name": "likes",
          "type": "uint256"
        },
        {
          "indexed": false,
          "internalType": "uint256",
          "name": "timestamp",
          "type": "uint256"
        }
      ],
      "name": "NewWave",
      "type": "event"
    },
    {
      "inputs": [
        {
          "internalType": "address",
          "name": "_likedUser",
          "type": "address"
        }
      ],
      "name": "doLike",
      "outputs": [],
      "stateMutability": "nonpayable",
      "type": "function"
    },
    {
      "inputs": [
        {
          "internalType": "string",
          "name": "_message",
          "type": "string"
        }
      ],
      "name": "doWave",
      "outputs": [],
      "stateMutability": "nonpayable",
      "type": "function"
    },
    {
      "inputs": [],
      "name": "getAllWaves",
      "outputs": [
        {
          "components": [
            {
              "internalType": "address",
              "name": "user",
              "type": "address"
            },
            {
              "internalType": "uint8",
              "name": "ative",
              "type": "uint8"
            },
            {
              "internalType": "string[]",
              "name": "messages",
              "type": "string[]"
            },
            {
              "internalType": "uint256",
              "name": "likes",
              "type": "uint256"
            },
            {
              "internalType": "uint256",
              "name": "timestamp",
              "type": "uint256"
            }
          ],
          "internalType": "struct WavePortal.Wave[]",
          "name": "",
          "type": "tuple[]"
        }
      ],
      "stateMutability": "view",
      "type": "function"
    }
  ],
  "bytecode": "0x60806040526200004f6040518060400160405280600e81526020017f4e65772057617665506f7274616c0000000000000000000000000000000000008152506200005560201b62000d051760201c565b620001e9565b620000f5816040516024016200006c919062000162565b6040516020818303038152906040527f41304fac000000000000000000000000000000000000000000000000000000007bffffffffffffffffffffffffffffffffffffffffffffffffffffffff19166020820180517bffffffffffffffffffffffffffffffffffffffffffffffffffffffff8381831617835250505050620000f860201b60201c565b50565b60008151905060006a636f6e736f6c652e6c6f679050602083016000808483855afa5050505050565b60006200012e8262000186565b6200013a818562000191565b93506200014c818560208601620001a2565b6200015781620001d8565b840191505092915050565b600060208201905081810360008301526200017e818462000121565b905092915050565b600081519050919050565b600082825260208201905092915050565b60005b83811015620001c2578082015181840152602081019050620001a5565b83811115620001d2576000848401525b50505050565b6000601f19601f8301169050919050565b6117df80620001f96000396000f3fe608060405234801561001057600080fd5b50600436106100415760003560e01c80630ace0a25146100465780634a7149ed14610062578063bd43a9081461007e575b600080fd5b610060600480360381019061005b9190610fd4565b61009c565b005b61007c60048036038101906100779190610fab565b61068e565b005b610086610b46565b60405161009391906113ad565b60405180910390f35b60008060003373ffffffffffffffffffffffffffffffffffffffff1673ffffffffffffffffffffffffffffffffffffffff16815260200190815260200160002054141561024257600180805490506100f4919061154d565b6000803373ffffffffffffffffffffffffffffffffffffffff1673ffffffffffffffffffffffffffffffffffffffff16815260200190815260200160002081905550606060016040518060a001604052803373ffffffffffffffffffffffffffffffffffffffff168152602001600160ff1681526020018381526020016000815260200142815250908060018154018082558091505060019003906000526020600020906004020160009091909190915060008201518160000160006101000a81548173ffffffffffffffffffffffffffffffffffffffff021916908373ffffffffffffffffffffffffffffffffffffffff16021790555060208201518160000160146101000a81548160ff021916908360ff1602179055506040820151816001019080519060200190610229929190610dc7565b5060608201518160020155608082015181600301555050505b6001806000803373ffffffffffffffffffffffffffffffffffffffff1673ffffffffffffffffffffffffffffffffffffffff1681526020019081526020016000205461028e91906115a3565b815481106102c5577f4e487b7100000000000000000000000000000000000000000000000000000000600052603260045260246000fd5b90600052602060002090600402016001018190806001815401808255809150506001900390600052602060002001600090919091909150908051906020019061030f929190610e27565b5060006001806000803373ffffffffffffffffffffffffffffffffffffffff1673ffffffffffffffffffffffffffffffffffffffff1681526020019081526020016000205461035e91906115a3565b81548110610395577f4e487b7100000000000000000000000000000000000000000000000000000000600052603260045260246000fd5b90600052602060002090600402016040518060a00160405290816000820160009054906101000a900473ffffffffffffffffffffffffffffffffffffffff1673ffffffffffffffffffffffffffffffffffffffff1673ffffffffffffffffffffffffffffffffffffffff1681526020016000820160149054906101000a900460ff1660ff1660ff16815260200160018201805480602002602001604051908101604052809291908181526020016000905b828210156104f257838290600052602060002001805461046590611662565b80601f016020809104026020016040519081016040528092919081815260200182805461049190611662565b80156104de5780601f106104b3576101008083540402835291602001916104de565b820191906000526020600020905b8154815290600101906020018083116104c157829003601f168201915b505050505081526020019060010190610446565b505050508152602001600282015481526020016003820154815250509050806000015173ffffffffffffffffffffffffffffffffffffffff167fabee75da029b9a00dc0bf5b9491c0b93a2393ec8564febb4b93e4724cabf7b3082604001518360600151846080015160405161056a9392919061136f565b60405180910390a260006011426105819190611694565b90506000811415610689576000655af3107a40009050478111156105da576040517f08c379a00000000000000000000000000000000000000000000000000000000081526004016105d190611411565b60405180910390fd5b60003373ffffffffffffffffffffffffffffffffffffffff16826040516106009061135a565b60006040518083038185875af1925050503d806000811461063d576040519150601f19603f3d011682016040523d82523d6000602084013e610642565b606091505b5050905080610686576040517f08c379a000000000000000000000000000000000000000000000000000000000815260040161067d906113f1565b60405180910390fd5b50505b505050565b60008060008373ffffffffffffffffffffffffffffffffffffffff1673ffffffffffffffffffffffffffffffffffffffff16815260200190815260200160002054141561083457600180805490506106e6919061154d565b6000808373ffffffffffffffffffffffffffffffffffffffff1673ffffffffffffffffffffffffffffffffffffffff16815260200190815260200160002081905550606060016040518060a001604052808473ffffffffffffffffffffffffffffffffffffffff168152602001600160ff1681526020018381526020016000815260200142815250908060018154018082558091505060019003906000526020600020906004020160009091909190915060008201518160000160006101000a81548173ffffffffffffffffffffffffffffffffffffffff021916908373ffffffffffffffffffffffffffffffffffffffff16021790555060208201518160000160146101000a81548160ff021916908360ff160217905550604082015181600101908051906020019061081b929190610dc7565b5060608201518160020155608082015181600301555050505b60018060016000808573ffffffffffffffffffffffffffffffffffffffff1673ffffffffffffffffffffffffffffffffffffffff1681526020019081526020016000205461088291906115a3565b815481106108b9577f4e487b7100000000000000000000000000000000000000000000000000000000600052603260045260246000fd5b906000526020600020906004020160020160008282546108d9919061154d565b9250508190555060006001806000808573ffffffffffffffffffffffffffffffffffffffff1673ffffffffffffffffffffffffffffffffffffffff1681526020019081526020016000205461092e91906115a3565b81548110610965577f4e487b7100000000000000000000000000000000000000000000000000000000600052603260045260246000fd5b90600052602060002090600402016040518060a00160405290816000820160009054906101000a900473ffffffffffffffffffffffffffffffffffffffff1673ffffffffffffffffffffffffffffffffffffffff1673ffffffffffffffffffffffffffffffffffffffff1681526020016000820160149054906101000a900460ff1660ff1660ff16815260200160018201805480602002602001604051908101604052809291908181526020016000905b82821015610ac2578382906000526020600020018054610a3590611662565b80601f0160208091040260200160405190810160405280929190818152602001828054610a6190611662565b8015610aae5780601f10610a8357610100808354040283529160200191610aae565b820191906000526020600020905b815481529060010190602001808311610a9157829003601f168201915b505050505081526020019060010190610a16565b505050508152602001600282015481526020016003820154815250509050806000015173ffffffffffffffffffffffffffffffffffffffff167fabee75da029b9a00dc0bf5b9491c0b93a2393ec8564febb4b93e4724cabf7b30826040015183606001518460800151604051610b3a9392919061136f565b60405180910390a25050565b60606001805480602002602001604051908101604052809291908181526020016000905b82821015610cfc57838290600052602060002090600402016040518060a00160405290816000820160009054906101000a900473ffffffffffffffffffffffffffffffffffffffff1673ffffffffffffffffffffffffffffffffffffffff1673ffffffffffffffffffffffffffffffffffffffff1681526020016000820160149054906101000a900460ff1660ff1660ff16815260200160018201805480602002602001604051908101604052809291908181526020016000905b82821015610cd1578382906000526020600020018054610c4490611662565b80601f0160208091040260200160405190810160405280929190818152602001828054610c7090611662565b8015610cbd5780601f10610c9257610100808354040283529160200191610cbd565b820191906000526020600020905b815481529060010190602001808311610ca057829003601f168201915b505050505081526020019060010190610c25565b5050505081526020016002820154815260200160038201548152505081526020019060010190610b6a565b50505050905090565b610d9b81604051602401610d1991906113cf565b6040516020818303038152906040527f41304fac000000000000000000000000000000000000000000000000000000007bffffffffffffffffffffffffffffffffffffffffffffffffffffffff19166020820180517bffffffffffffffffffffffffffffffffffffffffffffffffffffffff8381831617835250505050610d9e565b50565b60008151905060006a636f6e736f6c652e6c6f679050602083016000808483855afa5050505050565b828054828255906000526020600020908101928215610e16579160200282015b82811115610e15578251829080519060200190610e05929190610e27565b5091602001919060010190610de7565b5b509050610e239190610ead565b5090565b828054610e3390611662565b90600052602060002090601f016020900481019282610e555760008555610e9c565b82601f10610e6e57805160ff1916838001178555610e9c565b82800160010185558215610e9c579182015b82811115610e9b578251825591602001919060010190610e80565b5b509050610ea99190610ed1565b5090565b5b80821115610ecd5760008181610ec49190610eee565b50600101610eae565b5090565b5b80821115610eea576000816000905550600101610ed2565b5090565b508054610efa90611662565b6000825580601f10610f0c5750610f2b565b601f016020900490600052602060002090810190610f2a9190610ed1565b5b50565b6000610f41610f3c84611462565b611431565b905082815260208101848484011115610f5957600080fd5b610f64848285611620565b509392505050565b600081359050610f7b81611792565b92915050565b600082601f830112610f9257600080fd5b8135610fa2848260208601610f2e565b91505092915050565b600060208284031215610fbd57600080fd5b6000610fcb84828501610f6c565b91505092915050565b600060208284031215610fe657600080fd5b600082013567ffffffffffffffff81111561100057600080fd5b61100c84828501610f81565b91505092915050565b600061102183836111ab565b905092915050565b600061103583836112b7565b905092915050565b611046816115d7565b82525050565b6000611057826114b2565b61106181856114ed565b93508360208202850161107385611492565b8060005b858110156110af57848403895281516110908582611015565b945061109b836114d3565b925060208a01995050600181019050611077565b50829750879550505050505092915050565b60006110cc826114b2565b6110d681856114fe565b9350836020820285016110e885611492565b8060005b8581101561112457848403895281516111058582611015565b9450611110836114d3565b925060208a019950506001810190506110ec565b50829750879550505050505092915050565b6000611141826114bd565b61114b818561150f565b93508360208202850161115d856114a2565b8060005b85811015611199578484038952815161117a8582611029565b9450611185836114e0565b925060208a01995050600181019050611161565b50829750879550505050505092915050565b60006111b6826114c8565b6111c0818561152b565b93506111d081856020860161162f565b6111d981611781565b840191505092915050565b60006111ef826114c8565b6111f9818561153c565b935061120981856020860161162f565b61121281611781565b840191505092915050565b600061122a60138361153c565b91507f5472616e7366657220696e737563636566756c000000000000000000000000006000830152602082019050919050565b600061126a60128361153c565b91507f4e6f7420656e6f7567682062616c616e636500000000000000000000000000006000830152602082019050919050565b60006112aa600083611520565b9150600082019050919050565b600060a0830160008301516112cf600086018261103d565b5060208301516112e2602086018261134b565b50604083015184820360408601526112fa828261104c565b915050606083015161130f606086018261132d565b506080830151611322608086018261132d565b508091505092915050565b61133681611609565b82525050565b61134581611609565b82525050565b61135481611613565b82525050565b60006113658261129d565b9150819050919050565b6000606082019050818103600083015261138981866110c1565b9050611398602083018561133c565b6113a5604083018461133c565b949350505050565b600060208201905081810360008301526113c78184611136565b905092915050565b600060208201905081810360008301526113e981846111e4565b905092915050565b6000602082019050818103600083015261140a8161121d565b9050919050565b6000602082019050818103600083015261142a8161125d565b9050919050565b6000604051905081810181811067ffffffffffffffff8211171561145857611457611752565b5b8060405250919050565b600067ffffffffffffffff82111561147d5761147c611752565b5b601f19601f8301169050602081019050919050565b6000819050602082019050919050565b6000819050602082019050919050565b600081519050919050565b600081519050919050565b600081519050919050565b6000602082019050919050565b6000602082019050919050565b600082825260208201905092915050565b600082825260208201905092915050565b600082825260208201905092915050565b600081905092915050565b600082825260208201905092915050565b600082825260208201905092915050565b600061155882611609565b915061156383611609565b9250827fffffffffffffffffffffffffffffffffffffffffffffffffffffffffffffffff03821115611598576115976116c5565b5b828201905092915050565b60006115ae82611609565b91506115b983611609565b9250828210156115cc576115cb6116c5565b5b828203905092915050565b60006115e2826115e9565b9050919050565b600073ffffffffffffffffffffffffffffffffffffffff82169050919050565b6000819050919050565b600060ff82169050919050565b82818337600083830152505050565b60005b8381101561164d578082015181840152602081019050611632565b8381111561165c576000848401525b50505050565b6000600282049050600182168061167a57607f821691505b6020821081141561168e5761168d611723565b5b50919050565b600061169f82611609565b91506116aa83611609565b9250826116ba576116b96116f4565b5b828206905092915050565b7f4e487b7100000000000000000000000000000000000000000000000000000000600052601160045260246000fd5b7f4e487b7100000000000000000000000000000000000000000000000000000000600052601260045260246000fd5b7f4e487b7100000000000000000000000000000000000000000000000000000000600052602260045260246000fd5b7f4e487b7100000000000000000000000000000000000000000000000000000000600052604160045260246000fd5b6000601f19601f8301169050919050565b61179b816115d7565b81146117a657600080fd5b5056fea26469706673582212203f53deb42a749b6a7c99f6b43fd228bf605d502a7da34c860e600728f1d957cb64736f6c63430008000033",
  "linkReferences": {},
  "deployedLinkReferences": {}
}