{
  "_format": "hh-sol-artifact-1",
  "contractName": "WavePortal",
  "sourceName": "contracts/WavePortal.sol",
  "abi": [
    {
      "inputs": [],
      "stateMutability": "nonpayable",
      "type": "constructor"
    },
    {
      "anonymous": false,
      "inputs": [
        {
          "indexed": true,
          "internalType": "address",
          "name": "from",
          "type": "address"
        },
        {
          "indexed": false,
          "internalType": "string[]",
          "name": "messages",
          "type": "string[]"
        },
        {
          "indexed": false,
          "internalType": "uint256",
          "name": "likes",
          "type": "uint256"
        },
        {
          "indexed": false,
          "internalType": "uint256",
          "name": "timestamp",
          "type": "uint256"
        }
      ],
      "name": "NewWave",
      "type": "event"
    },
    {
      "inputs": [],
      "name": "doLike",
      "outputs": [],
      "stateMutability": "nonpayable",
      "type": "function"
    },
    {
      "inputs": [
        {
          "internalType": "string",
          "name": "_message",
          "type": "string"
        }
      ],
      "name": "doWave",
      "outputs": [],
      "stateMutability": "nonpayable",
      "type": "function"
    },
    {
      "inputs": [],
      "name": "getAllWaves",
      "outputs": [
        {
          "components": [
            {
              "internalType": "address",
              "name": "user",
              "type": "address"
            },
            {
              "internalType": "uint8",
              "name": "ative",
              "type": "uint8"
            },
            {
              "internalType": "string[]",
              "name": "messages",
              "type": "string[]"
            },
            {
              "internalType": "uint256",
              "name": "likes",
              "type": "uint256"
            },
            {
              "internalType": "uint256",
              "name": "timestamp",
              "type": "uint256"
            }
          ],
          "internalType": "struct WavePortal.Wave[]",
          "name": "",
          "type": "tuple[]"
        }
      ],
      "stateMutability": "view",
      "type": "function"
    }
  ],
  "bytecode": "0x60806040523480156200001157600080fd5b506200005d6040518060400160405280600e81526020017f4e65772057617665506f7274616c0000000000000000000000000000000000008152506200006360201b62000bda1760201c565b620001f7565b62000103816040516024016200007a919062000170565b6040516020818303038152906040527f41304fac000000000000000000000000000000000000000000000000000000007bffffffffffffffffffffffffffffffffffffffffffffffffffffffff19166020820180517bffffffffffffffffffffffffffffffffffffffffffffffffffffffff83818316178352505050506200010660201b60201c565b50565b60008151905060006a636f6e736f6c652e6c6f679050602083016000808483855afa5050505050565b60006200013c8262000194565b6200014881856200019f565b93506200015a818560208601620001b0565b6200016581620001e6565b840191505092915050565b600060208201905081810360008301526200018c81846200012f565b905092915050565b600081519050919050565b600082825260208201905092915050565b60005b83811015620001d0578082015181840152602081019050620001b3565b83811115620001e0576000848401525b50505050565b6000601f19601f8301169050919050565b61150580620002076000396000f3fe608060405234801561001057600080fd5b50600436106100415760003560e01c80630ace0a25146100465780636d6a9eb514610062578063bd43a9081461006c575b600080fd5b610060600480360381019061005b9190610e6b565b61008a565b005b61006a610564565b005b610074610a1b565b6040516100819190611195565b60405180910390f35b60008060003373ffffffffffffffffffffffffffffffffffffffff1673ffffffffffffffffffffffffffffffffffffffff16815260200190815260200160002054141561023057600180805490506100e291906112ea565b6000803373ffffffffffffffffffffffffffffffffffffffff1673ffffffffffffffffffffffffffffffffffffffff16815260200190815260200160002081905550606060016040518060a001604052803373ffffffffffffffffffffffffffffffffffffffff168152602001600160ff1681526020018381526020016000815260200142815250908060018154018082558091505060019003906000526020600020906004020160009091909190915060008201518160000160006101000a81548173ffffffffffffffffffffffffffffffffffffffff021916908373ffffffffffffffffffffffffffffffffffffffff16021790555060208201518160000160146101000a81548160ff021916908360ff1602179055506040820151816001019080519060200190610217929190610c9c565b5060608201518160020155608082015181600301555050505b6001806000803373ffffffffffffffffffffffffffffffffffffffff1673ffffffffffffffffffffffffffffffffffffffff1681526020019081526020016000205461027c9190611340565b815481106102b3577f4e487b7100000000000000000000000000000000000000000000000000000000600052603260045260246000fd5b9060005260206000209060040201600101819080600181540180825580915050600190039060005260206000200160009091909190915090805190602001906102fd929190610cfc565b5060006001806000803373ffffffffffffffffffffffffffffffffffffffff1673ffffffffffffffffffffffffffffffffffffffff1681526020019081526020016000205461034c9190611340565b81548110610383577f4e487b7100000000000000000000000000000000000000000000000000000000600052603260045260246000fd5b90600052602060002090600402016040518060a00160405290816000820160009054906101000a900473ffffffffffffffffffffffffffffffffffffffff1673ffffffffffffffffffffffffffffffffffffffff1673ffffffffffffffffffffffffffffffffffffffff1681526020016000820160149054906101000a900460ff1660ff1660ff16815260200160018201805480602002602001604051908101604052809291908181526020016000905b828210156104e0578382906000526020600020018054610453906113ff565b80601f016020809104026020016040519081016040528092919081815260200182805461047f906113ff565b80156104cc5780601f106104a1576101008083540402835291602001916104cc565b820191906000526020600020905b8154815290600101906020018083116104af57829003601f168201915b505050505081526020019060010190610434565b505050508152602001600282015481526020016003820154815250509050806000015173ffffffffffffffffffffffffffffffffffffffff167fabee75da029b9a00dc0bf5b9491c0b93a2393ec8564febb4b93e4724cabf7b3082604001518360600151846080015160405161055893929190611157565b60405180910390a25050565b60008060003373ffffffffffffffffffffffffffffffffffffffff1673ffffffffffffffffffffffffffffffffffffffff16815260200190815260200160002054141561070a57600180805490506105bc91906112ea565b6000803373ffffffffffffffffffffffffffffffffffffffff1673ffffffffffffffffffffffffffffffffffffffff16815260200190815260200160002081905550606060016040518060a001604052803373ffffffffffffffffffffffffffffffffffffffff168152602001600160ff1681526020018381526020016000815260200142815250908060018154018082558091505060019003906000526020600020906004020160009091909190915060008201518160000160006101000a81548173ffffffffffffffffffffffffffffffffffffffff021916908373ffffffffffffffffffffffffffffffffffffffff16021790555060208201518160000160146101000a81548160ff021916908360ff16021790555060408201518160010190805190602001906106f1929190610c9c565b5060608201518160020155608082015181600301555050505b60018060016000803373ffffffffffffffffffffffffffffffffffffffff1673ffffffffffffffffffffffffffffffffffffffff168152602001908152602001600020546107589190611340565b8154811061078f577f4e487b7100000000000000000000000000000000000000000000000000000000600052603260045260246000fd5b906000526020600020906004020160020160008282546107af91906112ea565b9250508190555060006001806000803373ffffffffffffffffffffffffffffffffffffffff1673ffffffffffffffffffffffffffffffffffffffff168152602001908152602001600020546108049190611340565b8154811061083b577f4e487b7100000000000000000000000000000000000000000000000000000000600052603260045260246000fd5b90600052602060002090600402016040518060a00160405290816000820160009054906101000a900473ffffffffffffffffffffffffffffffffffffffff1673ffffffffffffffffffffffffffffffffffffffff1673ffffffffffffffffffffffffffffffffffffffff1681526020016000820160149054906101000a900460ff1660ff1660ff16815260200160018201805480602002602001604051908101604052809291908181526020016000905b8282101561099857838290600052602060002001805461090b906113ff565b80601f0160208091040260200160405190810160405280929190818152602001828054610937906113ff565b80156109845780601f1061095957610100808354040283529160200191610984565b820191906000526020600020905b81548152906001019060200180831161096757829003601f168201915b5050505050815260200190600101906108ec565b505050508152602001600282015481526020016003820154815250509050806000015173ffffffffffffffffffffffffffffffffffffffff167fabee75da029b9a00dc0bf5b9491c0b93a2393ec8564febb4b93e4724cabf7b30826040015183606001518460800151604051610a1093929190611157565b60405180910390a250565b60606001805480602002602001604051908101604052809291908181526020016000905b82821015610bd157838290600052602060002090600402016040518060a00160405290816000820160009054906101000a900473ffffffffffffffffffffffffffffffffffffffff1673ffffffffffffffffffffffffffffffffffffffff1673ffffffffffffffffffffffffffffffffffffffff1681526020016000820160149054906101000a900460ff1660ff1660ff16815260200160018201805480602002602001604051908101604052809291908181526020016000905b82821015610ba6578382906000526020600020018054610b19906113ff565b80601f0160208091040260200160405190810160405280929190818152602001828054610b45906113ff565b8015610b925780601f10610b6757610100808354040283529160200191610b92565b820191906000526020600020905b815481529060010190602001808311610b7557829003601f168201915b505050505081526020019060010190610afa565b5050505081526020016002820154815260200160038201548152505081526020019060010190610a3f565b50505050905090565b610c7081604051602401610bee91906111b7565b6040516020818303038152906040527f41304fac000000000000000000000000000000000000000000000000000000007bffffffffffffffffffffffffffffffffffffffffffffffffffffffff19166020820180517bffffffffffffffffffffffffffffffffffffffffffffffffffffffff8381831617835250505050610c73565b50565b60008151905060006a636f6e736f6c652e6c6f679050602083016000808483855afa5050505050565b828054828255906000526020600020908101928215610ceb579160200282015b82811115610cea578251829080519060200190610cda929190610cfc565b5091602001919060010190610cbc565b5b509050610cf89190610d82565b5090565b828054610d08906113ff565b90600052602060002090601f016020900481019282610d2a5760008555610d71565b82601f10610d4357805160ff1916838001178555610d71565b82800160010185558215610d71579182015b82811115610d70578251825591602001919060010190610d55565b5b509050610d7e9190610da6565b5090565b5b80821115610da25760008181610d999190610dc3565b50600101610d83565b5090565b5b80821115610dbf576000816000905550600101610da7565b5090565b508054610dcf906113ff565b6000825580601f10610de15750610e00565b601f016020900490600052602060002090810190610dff9190610da6565b5b50565b6000610e16610e118461120a565b6111d9565b905082815260208101848484011115610e2e57600080fd5b610e398482856113bd565b509392505050565b600082601f830112610e5257600080fd5b8135610e62848260208601610e03565b91505092915050565b600060208284031215610e7d57600080fd5b600082013567ffffffffffffffff811115610e9757600080fd5b610ea384828501610e41565b91505092915050565b6000610eb88383611042565b905092915050565b6000610ecc83836110b4565b905092915050565b610edd81611374565b82525050565b6000610eee8261125a565b610ef88185611295565b935083602082028501610f0a8561123a565b8060005b85811015610f465784840389528151610f278582610eac565b9450610f328361127b565b925060208a01995050600181019050610f0e565b50829750879550505050505092915050565b6000610f638261125a565b610f6d81856112a6565b935083602082028501610f7f8561123a565b8060005b85811015610fbb5784840389528151610f9c8582610eac565b9450610fa78361127b565b925060208a01995050600181019050610f83565b50829750879550505050505092915050565b6000610fd882611265565b610fe281856112b7565b935083602082028501610ff48561124a565b8060005b8581101561103057848403895281516110118582610ec0565b945061101c83611288565b925060208a01995050600181019050610ff8565b50829750879550505050505092915050565b600061104d82611270565b61105781856112c8565b93506110678185602086016113cc565b611070816114be565b840191505092915050565b600061108682611270565b61109081856112d9565b93506110a08185602086016113cc565b6110a9816114be565b840191505092915050565b600060a0830160008301516110cc6000860182610ed4565b5060208301516110df6020860182611148565b50604083015184820360408601526110f78282610ee3565b915050606083015161110c606086018261112a565b50608083015161111f608086018261112a565b508091505092915050565b611133816113a6565b82525050565b611142816113a6565b82525050565b611151816113b0565b82525050565b600060608201905081810360008301526111718186610f58565b90506111806020830185611139565b61118d6040830184611139565b949350505050565b600060208201905081810360008301526111af8184610fcd565b905092915050565b600060208201905081810360008301526111d1818461107b565b905092915050565b6000604051905081810181811067ffffffffffffffff82111715611200576111ff61148f565b5b8060405250919050565b600067ffffffffffffffff8211156112255761122461148f565b5b601f19601f8301169050602081019050919050565b6000819050602082019050919050565b6000819050602082019050919050565b600081519050919050565b600081519050919050565b600081519050919050565b6000602082019050919050565b6000602082019050919050565b600082825260208201905092915050565b600082825260208201905092915050565b600082825260208201905092915050565b600082825260208201905092915050565b600082825260208201905092915050565b60006112f5826113a6565b9150611300836113a6565b9250827fffffffffffffffffffffffffffffffffffffffffffffffffffffffffffffffff0382111561133557611334611431565b5b828201905092915050565b600061134b826113a6565b9150611356836113a6565b92508282101561136957611368611431565b5b828203905092915050565b600061137f82611386565b9050919050565b600073ffffffffffffffffffffffffffffffffffffffff82169050919050565b6000819050919050565b600060ff82169050919050565b82818337600083830152505050565b60005b838110156113ea5780820151818401526020810190506113cf565b838111156113f9576000848401525b50505050565b6000600282049050600182168061141757607f821691505b6020821081141561142b5761142a611460565b5b50919050565b7f4e487b7100000000000000000000000000000000000000000000000000000000600052601160045260246000fd5b7f4e487b7100000000000000000000000000000000000000000000000000000000600052602260045260246000fd5b7f4e487b7100000000000000000000000000000000000000000000000000000000600052604160045260246000fd5b6000601f19601f830116905091905056fea264697066735822122071e00e496bcd9400241f13c5130f81e148e2d225987e1bba6c8cef1a1634ec9864736f6c63430008000033",
  "linkReferences": {},
  "deployedLinkReferences": {}
}